:03000000020006F5
:03002400020003D4
:030003000201F403
:200027007E007F00C3EE9410EF6480948040030200F0C007C0061202F37511647512001234
:2000470003C0AC82C0041202F37511647512001203C0AB828B081202F3751164751200124D
:2000670003C0AA828A091202F37511107512001203C0A982D004D006D00778007D008902D2
:200087007B00C3E89AED64808BF063F08095F0502B750A00750B00758200C007C006C00532
:2000A700C004C001C00012023BD000D001D004D005D006D00708B800C50D80C285080A85BE
:2000C700090B8C82C007C00612023B9000641202CB750A00750B0075820012023BD006D05D
:2000E700070EBE00010F02002B7E007F00C3EE9409EF64809480501B750A00750B00758256
:2001070000C007C00612023BD006D0070EBE00DD0F80DA227E007F00C374109E74808FF0C6
:2001270063F08095F0500122C007C0061202F37511647512001203C0AC82C0041202F375A5
:2001470011647512001203C0AB82C0031202F37511647512001203C0AA82D003D004D006E1
:20016700D00779007D00C3E99EED64808FF063F08095F0502C8B0A8A0B8C82C007C006C0B8
:2001870005C004C003C002C00112023BD001D002D003D004D005D006D00709B900C80D8017
:2001A700C5900064C007C0061202CBD006D0077C007D00C3EC9EED64808FF063F08095F078
:2001C7005023750A00750B00758200C007C006C005C00412023BD004D005D006D0070CBC2C
:2001E70000D10D80CE0EBE00010F02011FC2B35396F743970875A15575A1AA53B9F843B96C
:1E0207000575A1009000641202CB1200279000641202CB12011B9000641202CB80EC72
:200225007F08C58233D2009200000000000000C2000000DFEF22AF82850A82C00712022560
:20024500D0078F82120225850B82020225E582FF23235403FE53073FAD0C8DF005F0EF8009
:200265000225E0D5F0FBFF8DF005F0743F800225E0D5F0FB8F04C39CFDBE0002800ABE014F
:2002850002800FBE022080148F0A750B008D8202023B8D0A8F0B75820002023B750A008D7A
:0702A5000B8F8202023B22D5
:2002AC00AE82AF83EE4F6016E5A104F5A1E5A104F5A1E5A104F5A11EBEFF011F80E622AE8C
:1D02CC0082AF83EE4F60159003E8C007C0061202ACD006D0071EBEFF011F80E722B6
:0902EA00C007AF82DFFED007223D
:0B001900750D01E4F50EF50F75108069
:2002F300AC0DAD0EAE0FAF108D00EEC313C813C8C313C813C8F9EF030354C049F9EF030355
:20031300543FFA7B00EC6200ED6201EE6202EF6203E828FDE933FEEA33FF7C00E86204E988
:200333006205EA6206EB6207EFC313F8E4F9FAFBE86204E96205EA6206EB62078C0D8D0E96
:200353008E0F8F108C82747F5DF58322AE82AF837D007C008E0D8F0E8D0F74804CF51022C0
:06001300E478FFF6D8FDC1
:20037300E511451260467A01E51125E0F511E512334012F512E5829511E583951240030A0F
:2003930080E6C3E51213F512E51113F511C3E5829511F5F0E58395124005F58385F082C3C6
:0D03B300E51213F512E51113F511DAE12240
:0D0006007581121203F6E58260030200030B
:2003C000C2D5E58330E70DD2D5E4C39582F582E49583F583E51230E70BE4C39511F511E45A
:1603E0009512F51212037330D50BE4C39582F582E49583F58322F6
:0403F60075820022EA
:00000001FF
